:020000040800F2
:100000000000022001160008E9130008EF130008A1
:10001000F5130008FB13000801140008000000009D
:1000200000000000000000000000000007140008AD
:100030001514000800000000231400083114000803
:1000400051160008511600085116000851160008F4
:1000500051160008511600085116000851160008E4
:1000600051160008511600085116000851160008D4
:1000700051160008511600085116000851160008C4
:100080005116000851160008511600080000000023
:1000900000000000000000000000000051160008F1
:1000A0005116000851160008511600085116000894
:1000B0003D1400085116000851160008511400089C
:1000C000651400085116000851160008791400083C
:1000D00051160008511600085116000800000000D3
:1000E00051160008511600085116000800000000C3
:1000F0000000000000000000000000005116000891
:1001000000000000511600085116000851160008A2
:1001100000000000000000000000000000000000DF
:100120005116000851160008511600085116000813
:100130005116000800000000000000000000000050
:100140000000000000000000000000005116000840
:1001500051160008511600085116000851160008E3
:1001600051160008511600080000000000000000B1
:10017000000000000000000000000000000000007F
:100180000000000051160008000000000000000000
:08019000511600085116000889
:1001A00010B5054C237833B9044B13B10448AFF3B1
:1001B00000800123237010BD7C000020000000009F
:1001C0005862000808B5034B1BB103490348AFF35D
:1001D000008008BD00000000800000205862000878
:1001E000034613F8012B002AFBD1181A0138704777
:1001F00001F0FF01102A2BDB10F0070F08D010F8D8
:10020000013B013A8B422DD010F0070F42B3F6D1DB
:10021000F0B441EA012141EA014122F007047FF0F4
:1002200000070023F0E80256083C85EA010586EA4B
:10023000010685FA47F5A3FA87F586FA47F6A5FA87
:1002400087F68EB9EED1F0BC01F0FF0102F0070293
:1002500032B110F8013B013A83EA010313B1F8D13E
:100260000020704701387047002D06BF354603381F
:10027000073815F0010F07D1013015F4807F02BF58
:10028000013015F4C03F0130F0BC0138704700BFA9
:1002900053B94AB9002908BF00281CBF4FF0FF31ED
:1002A0004FF0FF3000F074B9ADF1080C6DE904CEE9
:1002B00000F006F8DDF804E0DDE9022304B0704741
:1002C0002DE9F047089D04468E46002B4DD18A4209
:1002D000944669D9B2FA82F252B101FA02F3C2F13C
:1002E000200120FA01F10CFA02FC41EA030E9440CD
:1002F0004FEA1C48210CBEFBF8F61FFA8CF708FBEE
:1003000016E341EA034306FB07F199420AD91CEBC5
:10031000030306F1FF3080F01F81994240F21C81F7
:10032000023E63445B1AA4B2B3FBF8F008FB10333F
:1003300044EA034400FB07F7A7420AD91CEB040474
:1003400000F1FF3380F00A81A74240F20781644444
:10035000023840EA0640E41B00261DB1D4400023C9
:10036000C5E900433146BDE8F0878B4209D9002D2D
:1003700000F0EF800026C5E9000130463146BDE8B7
:10038000F087B3FA83F6002E4AD18B4202D3824221
:1003900000F2F980841A61EB030301209E46002DD0
:1003A000E0D0C5E9004EDDE702B9FFDEB2FA82F225
:1003B000002A40F09280A1EB0C014FEA1C471FFA83
:1003C0008CFE0126200CB1FBF7F307FB131140EA6A
:1003D00001410EFB03F0884208D91CEB010103F137
:1003E000FF3802D2884200F2CB804346091AA4B2F9
:1003F000B1FBF7F007FB101144EA01440EFB00FECD
:10040000A64508D91CEB040400F1FF3102D2A64531
:1004100000F2BB800846A4EB0E0440EA03409CE7D0
:10042000C6F12007B34022FA07FC4CEA030C20FA7D
:1004300007F401FA06F31C43F9404FEA1C4900FA9D
:1004400006F3B1FBF9F8200C1FFA8CFE09FB18111A
:1004500040EA014108FB0EF0884202FA06F20BD98D
:100460001CEB010108F1FF3A80F08880884240F2DD
:100470008580A8F102086144091AA4B2B1FBF9F021
:1004800009FB101144EA014100FB0EFE8E4508D91C
:100490001CEB010100F1FF346CD28E456AD90238A1
:1004A000614440EA0840A0FB0294A1EB0E01A14286
:1004B000C846A64656D353D05DB1B3EB080261EBF4
:1004C0000E0101FA07F722FA06F3F1401F43C5E9CE
:1004D000007100263146BDE8F087C2F12003D84004
:1004E0000CFA02FC21FA03F3914001434FEA1C4746
:1004F0001FFA8CFEB3FBF7F007FB10360B0C43EA38
:10050000064300FB0EF69E4204FA02F408D91CEBE7
:10051000030300F1FF382FD29E422DD902386344E5
:100520009B1B89B2B3FBF7F607FB163341EA034185
:1005300006FB0EF38B4208D91CEB010106F1FF38D4
:1005400016D28B4214D9023E6144C91A46EA0046CB
:1005500038E72E46284605E70646E3E61846F8E65D
:100560004B45A9D2B9EB020864EB0C0E0138A3E7A6
:100570004646EAE7204694E74046D1E7D0467BE787
:10058000023B614432E7304609E76444023842E7FF
:10059000704700BF80B584B000AF0346FB71154BB8
:1005A00002229A61F823FB7307F10F030122194617
:1005B000114804F0A1FAFB7923F00F03DBB2FB73BF
:1005C00007F10F03012219460B4804F095FAFB7955
:1005D0001B01DBB2FB7307F10F030122194606482A
:1005E00004F08AFA034B4FF400329A6100BF1037CF
:1005F000BD4680BD000002408005002080B584B06B
:1006000000AF0346FB71154B02229A61FA23FB737C
:1006100007F10F0301221946114804F06DFAFB7926
:1006200023F00F03DBB2FB7307F10F03012219461E
:100630000B4804F061FAFB791B01DBB2FB7307F195
:100640000F0301221946064804F056FA034B4FF4F3
:1006500000329A6100BF1037BD4680BD00000240E5
:100660008005002080B582B000AF1E4B4FF4802281
:100670009A610A2001F060F81A4B04229A6128203E
:1006800001F05AF83023FB71FB791846FFF782FF1F
:10069000012001F051F8FB791846FFF77BFF01209C
:1006A00001F04AF80C23FB71FB791846FFF772FF43
:1006B000012001F041F80123FB71FB791846FFF797
:1006C00069FF0C2001F038F80623FB71FB7918460E
:1006D000FFF760FF012001F02FF800BF0837BD468B
:1006E00080BD00BF0000024080B582B000AF03466D
:1006F000FB71FB79002B0CD03420FFF74BFF01205E
:1007000001F01AF83620FFF745FF012001F014F838
:100710000BE0FB7983F00103DBB2002B05D0302026
:10072000FFF738FF012001F007F800BF0837BD468A
:1007300080BD80B582B000AF0023BB71BB793F2B79
:100740002ED8BB791F2B0AD8BB7963F07F03DBB2AD
:100750001846FFF71FFF8020FFF71CFF0DE0BB7955
:10076000203BDBB25BB263F07F035BB2DBB21846C7
:10077000FFF710FF8820FFF70DFF0023FB71FB79C7
:10078000072B09D80020FFF739FF0020FFF736FFBD
:10079000FB790133FB71F2E7BB790133BB71CDE724
:1007A00000F08AFA00BF0837BD4680BD80B584B02E
:1007B00000AF78600023BB810023BB73BB7B3F2B62
:1007C00000F23C810023FB73FB7B072B00F232819C
:1007D000BB7B1F2B0ED8BB7B63F07F03DBB21846BD
:1007E000FFF7D8FEFB7B63F07F03DBB21846FFF711
:1007F000D1FE11E0BB7B203BDBB25BB263F07F0339
:100800005BB2DBB21846FFF7C5FEFB7B63F07703F4
:10081000DBB21846FFF7BEFEBB7BDB08DBB2DA00BB
:10082000FB7B13449BB21B01BB81BB7B03F0070323
:10083000FB72BB897A6813441B781A46FB7A42FA2A
:1008400003F3DB015AB2BB89013379680B441B788F
:100850001946FB7A41FA03F39B015BB203F04003B4
:100860005BB213435AB2BB89023379680B441B78DD
:100870001946FB7A41FA03F35B015BB203F02003F4
:100880005BB213435AB2BB89033379680B441B78BC
:100890001946FB7A41FA03F31B015BB203F0100324
:1008A0005BB213435AB2BB89043379680B441B789B
:1008B0001946FB7A41FA03F3DB005BB203F008034D
:1008C0005BB213435AB2BB89053379680B441B787A
:1008D0001946FB7A41FA03F39B005BB203F0040371
:1008E0005BB213435AB2BB89063379680B441B7859
:1008F0001946FB7A41FA03F35B005BB203F0020393
:100900005BB213435AB2BB89073379680B441B7837
:100910001946FB7A41FA03F35BB203F001035BB2C1
:1009200013435BB2BB72BB7A1846FFF767FEBB8905
:1009300008337A6813441B781A46FB7A42FA03F3A9
:10094000DB015AB2BB89093379680B441B7819461D
:10095000FB7A41FA03F39B015BB203F040035BB205
:1009600013435AB2BB890A3379680B441B78194682
:10097000FB7A41FA03F35B015BB203F020035BB245
:1009800013435AB2BB890B3379680B441B78194661
:10099000FB7A41FA03F31B015BB203F010035BB275
:1009A00013435AB2BB890C3379680B441B78194640
:1009B000FB7A41FA03F3DB005BB203F008035BB29E
:1009C00013435AB2BB890D3379680B441B7819461F
:1009D000FB7A41FA03F39B005BB203F004035BB2C2
:1009E00013435AB2BB890E3379680B441B781946FE
:1009F000FB7A41FA03F35B005BB203F002035BB2E4
:100A000013435AB2BB890F3379680B441B781946DC
:100A1000FB7A41FA03F35BB203F001035BB21343C9
:100A20005BB2BB72BB7A1846FFF7E8FDFB7B013374
:100A3000FB73C9E6BB7B0133BB73BFE600BF103756
:100A4000BD4680BD80B500AF0248FFF7AFFE00BFD6
:100A500080BD00BF1801002080B485B000AF034600
:100A6000FB800B46BB801346FB700023FB60FB68DA
:100A7000062B29DCFB78002B12D0BA8813465B00CA
:100A800013445B001A46FB681344124AD25CF9888F
:100A9000FB680B44013BD243D1B20F4AD1540FE063
:100AA000BA8813465B0013445B001A46FB681A447D
:100AB000F988FB680B44013B0649895C064AD1541E
:100AC000FB680133FB60D2E700BF1437BD465DF819
:100AD000047B7047C86200081801002080B586B00A
:100AE00000AF3B600346FB800B467B7113463B71B6
:100AF0007B799BB2DB019AB2FB881344FB80002315
:100B0000FB810023FB7500233B613868FFF768FB1E
:100B100002463B699A4240F2CA803B693A681344F4
:100B20001B78BF2B22D8FB7D002B02D00023FB7546
:100B3000B9E03B693A6813441B78FB813B79002B91
:100B400008D0FB89203B99B2FB8801221846FFF7A9
:100B500083FF07E0FB89203B99B2FB8800221846FF
:100B6000FFF77AFFFB880633FB809CE03B693A681D
:100B700013441B781B021AB23B69013339680B44DA
:100B80001B781BB213431BB2FB81FB894DF27F1212
:100B9000934220D8FB894DF2810293421BD93B79C5
:100BA000002B0AD0FB8903F53F530F3399B2FB8822
:100BB00001221846FFF750FF09E0FB8903F53F5378
:100BC0000F3399B2FB8800221846FFF745FFFB88D8
:100BD0000633FB8065E0FB894DF28102934213D11D
:100BE0003B79002B06D0FB8801229F211846FFF796
:100BF00033FF05E0FB8800229F211846FFF72CFFFA
:100C0000FB880633FB804CE0FB894DF29112934246
:100C100013D13B79002B06D0FB880122A021184676
:100C2000FFF71AFF05E0FB880022A0211846FFF716
:100C300013FFFB880633FB8033E0FB894CF2B022C4
:100C4000934213D13B79002B06D0FB880122A121CE
:100C50001846FFF701FF05E0FB880022A121184696
:100C6000FFF7FAFEFB880633FB801AE03B79002B86
:100C70000AD0FB8903F53C530F3399B2FB8801225C
:100C80001846FFF7E9FE09E0FB8903F53C530F33F3
:100C900099B2FB8800221846FFF7DEFEFB88063378
:100CA000FB800123FB753B6901333B612DE700BFEE
:100CB0001837BD4680BD000080B500AF4FF480629C
:100CC0000021024804F052FE00BF80BD1801002040
:100CD00080B58AB000AF07F1140300221A605A6091
:100CE0009A60DA601A6100233B613A4B1B6B394A08
:100CF00043F004031363374B1B6B03F004033B61A6
:100D00003B690023FB60334B1B6B324A43F080038B
:100D10001363304B1B6B03F08003FB60FB68002305
:100D2000BB602C4B1B6B2B4A43F001031363294B15
:100D30001B6B03F00103BB60BB6800237B60254B8A
:100D40001B6B244A43F002031363224B1B6B03F01B
:100D500002037B607B6800224FF400511E4800F0C4
:100D6000D5FF002206211D4800F0D0FF00222021DF
:100D70001B4800F0CBFF4FF400537B610123BB61A4
:100D80000023FB6100233B6207F11403194612485C
:100D900000F038FE06237B610123BB610023FB6169
:100DA00000233B6207F1140319460C4800F02AFEA9
:100DB00020237B610123BB610023FB6100233B6295
:100DC00007F114031946064800F01CFE00BF28373F
:100DD000BD4680BD003802400008024000000240CD
:100DE0000004024080B500AF124B134A1A60114B49
:100DF000124A5A600F4B00229A600E4B0022DA60B2
:100E00000C4B4FF480421A610A4B00225A61094B85
:100E100000229A61074B0022DA61064B00221A6217
:100E2000044800F0A7FF0346002B01D000F028FA89
:100E300000BF80BD1805002000540040A0860100BE
:100E400080B58AB000AF786007F1140300221A6001
:100E50005A609A60DA601A617B681B68214A934283
:100E60003BD100233B61204B1B6B1F4A43F0020325
:100E700013631D4B1B6B03F002033B613B69C023F3
:100E80007B611223BB610023FB6103233B620423CC
:100E90007B6207F114031946144800F0B3FD0023E8
:100EA000FB60114B1B6C104A43F4001313640E4B90
:100EB0001B6C03F40013FB60FB68002200211F2061
:100EC00000F039FD1F2000F052FD002200212020FB
:100ED00000F031FD202000F04AFD00BF2837BD465C
:100EE00080BD00BF005400400038024000040240B2
:100EF00080B588B004AF00F0ADFB00F04FF9FFF70C
:100F0000E7FE00F0C3F900F009FBFFF76BFF642078
:100F100000F012FCFFF7A6FB0120FFF7E5FB6420C1
:100F200000F00AFC874B1A78874B1B781343DBB21F
:100F30009AB24FF47A73029301230193834B009387
:100F400001235221824801F059F80A2000F0F4FBF5
:100F50007E4B1A787F4B1B781343DBB27B71794B46
:100F60001A78794B1B781343DBB29AB24FF47A7339
:100F70000293012301937B1D0093012352217448A6
:100F800001F03CF8322000F0D7FB734B1A786E4B1F
:100F90001B781343DBB29AB24FF47A7302930123A6
:100FA00001936E4B009301235221694801F026F80A
:100FB000322000F0C1FB0023FB810023BB81002312
:100FC0007B8100233B811723FB80FFF7B2FBFFF7F8
:100FD00073FE634B1A78634B1B781343DBB29AB2F0
:100FE00002230193604B009301235221584801F0E2
:100FF000FFF80A2000F0A0FB5B4B5B789BB21B0262
:101000009BB21A46584B1B781A43FB8892FBF3F3AA
:10101000FB81FB891A465549554804F0AFFC544BF7
:10102000002200210020FFF759FD524B1A784D4B4A
:101030001B781343DBB29AB2022301934E4B009309
:1010400001235221424801F0D3F80A2000F074FB3A
:10105000494B5B789BB21B029BB21A46464B1B78EE
:101060001A43FB8892FBF3F3BB81BB891A464349C1
:101070003F4804F083FC3E4B002201210020FFF793
:101080002DFD3F4B1A78374B1B781343DBB29AB2D6
:10109000022301933B4B0093012352212C4801F082
:1010A000A7F80A2000F048FB364B5B789BB21B0286
:1010B0009BB21A46334B1B781A43FB8892FBF3F31F
:1010C0007B817B891A463049294804F057FC284B1C
:1010D000002202210020FFF701FD2C4B1A78214B42
:1010E0001B781343DBB29AB202230193284B00937F
:1010F00001235221164801F07BF80A2000F01CFB66
:10110000234B5B789BB21B029BB21A46204B1B7889
:101110001A43FB8892FBF3F33B813B891A461D4936
:10112000134804F02BFC124B002203210020FFF790
:10113000D5FCFFF787FC4FF40051174800F0FFFD86
:1011400043E700BF6C0500200000002006000020DF
:101150001805002007000020080000206D05002071
:1011600002000020050000207005002070620008C9
:10117000980000200300002074050020846200080D
:10118000040000207805002098620008010000207B
:101190007C050020A86200080008024080B594B0D9
:1011A00000AF07F1200330220021184604F0DEFBD7
:1011B00007F10C0300221A605A609A60DA601A6123
:1011C0000023BB602C4B1B6C2B4A43F080531364F1
:1011D000294B1B6C03F08053BB60BB6800237B6012
:1011E000264B1B68254A43F440431360234B1B687E
:1011F00003F440437B607B6801233B624FF4803300
:101200007B620223BB634FF48003FB630C233B64CC
:1012100060237B640223BB640423FB6407F1200387
:10122000184602F09BFF0346002B14BF0123002346
:10123000DBB2002B01D000F023F80F23FB60022368
:101240003B6100237B614FF48053BB610023FB6152
:1012500007F10C030321184603F0F8F90346002BAD
:1012600014BF01230023DBB2002B01D000F008F8EB
:1012700000BF5037BD4680BD0038024000700040BE
:1012800080B400AF72B600BFFEE7000080B500AFCB
:10129000174B184A1A60164B4FF482725A60144B5F
:1012A00000229A60124B0022DA60114B02221A616E
:1012B0000F4B01225A610E4B4FF400729A610C4B96
:1012C0003022DA610A4B00221A62094B00225A626C
:1012D000074B00229A62064B0A22DA62044803F0A6
:1012E00081FB0346002B01D0FFF7CAFF00BF80BD82
:1012F000800500200030014080B58AB000AF7860E2
:1013000007F1140300221A605A609A60DA601A61C9
:101310007B681B681D4A934233D100233B611C4B01
:101320005B6C1B4A43F480535364194B5B6C03F4AE
:1013300080533B613B690023FB60154B1B6B144AD8
:1013400043F001031363124B1B6B03F00103FB60BB
:10135000FB68A0237B610223BB610023FB610323A5
:101360003B6205237B6207F114031946094800F02C
:1013700049FB00220021232000F0DDFA232000F0A9
:10138000F6FA00BF2837BD4680BD00BF00300140DF
:10139000003802400000024080B483B000AF002358
:1013A0007B60104B5B6C0F4A43F4804353640D4BDE
:1013B0005B6C03F480437B607B6800233B60094BDC
:1013C0001B6C084A43F080531364064B1B6C03F0FC
:1013D00080533B603B6800BF0C37BD465DF8047B23
:1013E000704700BF0038024080B400AFFEE780B411
:1013F00000AFFEE780B400AFFEE780B400AFFEE7C9
:1014000080B400AFFEE780B400AF00BFBD465DF81A
:10141000047B704780B400AF00BFBD465DF8047B1D
:10142000704780B400AF00BFBD465DF8047B7047D5
:1014300080B500AF00F060F900BF80BD80B500AF9F
:10144000024803F0CCFE00BF80BD00BFDC050020D9
:1014500080B500AF024800F089FF00BF80BD00BF2B
:101460001805002080B500AF024801F0F0F800BF79
:1014700080BD00BF1805002080B500AF024803F012
:10148000C5FB00BF80BD00BF8005002080B586B0D1
:1014900000AF7860144A154BD31A7B617B693B61BE
:1014A000134B1B68002B02D1114B124A1A60104BD0
:1014B0001A687B6813443A699A4207D204F02CFAFE
:1014C00003460C221A604FF0FF3309E0084B1B68FB
:1014D000FB60074B1A687B681344054A1360FB687E
:1014E00018461837BD4680BD0000022000040000E9
:1014F000D80500203806002080B400AF064BD3F892
:101500008830054A43F47003C2F8883000BFBD46F6
:101510005DF8047B704700BF00ED00E080B586B049
:1015200000AF07F1080300221A605A609A60DA607F
:101530003B4600221A605A601D4B4FF080421A60F1
:101540001B4B40F2E7325A60194B00229A60184B4D
:101550006322DA60164B00221A61154B00229A6151
:10156000134803F0EDFD0346002B01D0FFF788FE82
:101570004FF48053BB6007F1080319460C4803F091
:1015800036FF0346002B01D0FFF77AFE20233B6095
:1015900000237B603B461946054804F03BF90346AF
:1015A000002B01D0FFF76CFE00BF1837BD4680BD91
:1015B000DC05002080B584B000AF78607B681B68D4
:1015C000B3F1804F15D10023FB600C4B1B6C0B4A11
:1015D00043F001031364094B1B6C03F00103FB6030
:1015E000FB68002201211C2000F0A5F91C2000F05E
:1015F000BEF900BF1037BD4680BD00BF00380240B5
:10160000DFF834D00D480E490E4A002302E0D458CA
:10161000C4500433C4188C42F9D30B4A0B4C00233A
:1016200001E013600432A242FBD3FFF765FF04F030
:1016300079F9FFF75DFC70470000022000000020F0
:101640007C000020F06600087C00002038060020A6
:10165000FEE7000080B500AF0E4B1B680D4A43F457
:10166000007313600B4B1B680A4A43F480631360DA
:10167000084B1B68074A43F480731360032000F093
:101680004FF90F2000F008F8FFF786FE00231846F8
:1016900080BD00BF003C024080B582B000AF7860E2
:1016A000124B1A68124B1B7819464FF47A73B3FB2E
:1016B000F1F3B2FBF3F3184600F067F90346002B91
:1016C00001D001230EE07B680F2B0AD80022796835
:1016D0004FF0FF3000F02FF9064A7B6813600023BB
:1016E00000E0012318460837BD4680BD0C000020ED
:1016F000140000201000002080B400AF064B1B78BF
:101700001A46064B1B681344044A136000BFBD46CB
:101710005DF8047B704700BF140000202406002001
:1017200080B400AF034B1B681846BD465DF8047BD0
:10173000704700BF2406002080B584B000AF7860F9
:10174000FFF7EEFFB8607B68FB60FB68B3F1FF3F1B
:1017500005D00A4B1B781A46FB681344FB6000BF98
:10176000FFF7DEFF0246BB68D31AFA689A42F7D841
:1017700000BF00BF1037BD4680BD00BF1400002071
:1017800080B485B000AF78607B6803F00703FB602E
:101790000C4BDB68BB60BA684FF6FF031340BB60BD
:1017A000FB681A02BB68134343F0BF6343F4003382
:1017B000BB60044ABB68D36000BF1437BD465DF808
:1017C000047B704700ED00E080B400AF044BDB68A1
:1017D0001B0A03F007031846BD465DF8047B7047FB
:1017E00000ED00E080B483B000AF0346FB7197F9D1
:1017F0000730002B0BDBFB7903F01F02074997F939
:1018000007305B09012000FA02F241F8232000BFF3
:101810000C37BD465DF8047B704700BF00E100E077
:1018200080B483B000AF03463960FB7197F907308D
:10183000002B0ADB3B68DAB20C4997F9073012013A
:10184000D2B20B4483F800230AE03B68DAB20849BD
:10185000FB7903F00F03043B1201D2B20B441A765A
:1018600000BF0C37BD465DF8047B704700E100E027
:1018700000ED00E080B489B000AFF860B9607A6034
:10188000FB6803F00703FB61FB69C3F10703042B4B
:1018900028BF0423BB61FB690433062B02D9FB6913
:1018A000033B00E000237B614FF0FF32BB6902FA8B
:1018B00003F3DA43BB681A407B699A404FF0FF316B
:1018C0007B6901FA03F3D9437B680B401343184645
:1018D0002437BD465DF8047B7047000080B582B0B8
:1018E00000AF78607B68013BB3F1807F01D30123B7
:1018F0000FE00A4A7B68013B53600F214FF0FF3035
:10190000FFF78EFF054B00229A60044B07221A60F6
:10191000002318460837BD4680BD00BF10E000E038
:1019200080B582B000AF78607868FFF729FF00BF0C
:101930000837BD4680BD80B586B000AF0346B960AC
:101940007A60FB7300237B61FFF73EFF78617A6862
:10195000B9687869FFF78EFF024697F90F30114694
:101960001846FFF75DFF00BF1837BD4680BD80B544
:1019700082B000AF0346FB7197F907301846FFF7B6
:1019800031FF00BF0837BD4680BD80B582B000AFD3
:1019900078607868FFF7A2FF034618460837BD460F
:1019A00080BD80B483B000AF78607B6893F8353039
:1019B000DBB2022B04D07B6880225A6501230CE045
:1019C0007B68052283F835207B681B681A687B6872
:1019D0001B6822F001021A60002318460C37BD462E
:1019E0005DF8047B704780B483B000AF78607B689B
:1019F00093F83530DBB218460C37BD465DF8047BF2
:101A00007047000080B489B000AF7860396000236F
:101A10007B6100233B610023BB610023FB6159E133
:101A20000122FB6902FA03F37B613B681B687A6958
:101A300013403B613A697B699A4240F048813B68B8
:101A40005B6803F00303012B05D03B685B6803F080
:101A50000303022B30D17B689B68BB61FB695B0091
:101A6000032202FA03F3DB43BA691340BB613B680C
:101A7000DA68FB695B0002FA03F3BA691343BB61DE
:101A80007B68BA699A607B685B68BB610122FB690D
:101A900002FA03F3DB43BA691340BB613B685B683E
:101AA0001B0903F00102FB6902FA03F3BA6913434D
:101AB000BB617B68BA695A603B685B6803F00303EB
:101AC000032B17D07B68DB68BB61FB695B000322DB
:101AD00002FA03F3DB43BA691340BB613B689A68BF
:101AE000FB695B0002FA03F3BA691343BB617B68CD
:101AF000BA69DA603B685B6803F00303022B23D109
:101B0000FB69DA087B68083253F82230BB61FB6955
:101B100003F007039B000F2202FA03F3DB43BA69C9
:101B20001340BB613B681A69FB6903F007039B0024
:101B300002FA03F3BA691343BB61FB69DA087B68F5
:101B40000832B96943F822107B681B68BB61FB69E6
:101B50005B00032202FA03F3DB43BA691340BB6163
:101B60003B685B6803F00302FB695B0002FA03F366
:101B7000BA691343BB617B68BA691A603B685B68EA
:101B800003F44033002B00F0A2800023FB60574B8E
:101B90005B6C564A43F480435364544B5B6C03F4D0
:101BA0008043FB60FB68524AFB699B08023352F892
:101BB0002330BB61FB6903F003039B000F2202FA91
:101BC00003F3DB43BA691340BB617B68494A934224
:101BD00019D07B68484A934213D07B68474A9342A6
:101BE0000DD07B68464A934207D07B68454A9342B2
:101BF00001D1042308E0072306E0032304E00223C5
:101C000002E0012300E00023FA6902F003029200DF
:101C10009340BA691343BB613549FB699B080233A2
:101C2000BA6941F82320384B9B68BB613B69DB43B1
:101C3000BA691340BB613B685B6803F48013002BF7
:101C400003D0BA693B691343BB612F4ABB699360F8
:101C50002D4BDB68BB613B69DB43BA691340BB6159
:101C60003B685B6803F40013002B03D0BA693B693F
:101C70001343BB61244ABB69D360234B5B68BB61E0
:101C80003B69DB43BA691340BB613B685B6803F4A3
:101C90000033002B03D0BA693B691343BB611A4A76
:101CA000BB695360184B1B68BB613B69DB43BA6976
:101CB0001340BB613B685B6803F48033002B03D0A7
:101CC000BA693B691343BB610F4ABB691360FB6987
:101CD0000133FB61FB690F2B7FF6A2AE00BF00BF93
:101CE0002437BD465DF8047B704700BF00380240D2
:101CF0000038014000000240000402400008024099
:101D0000000C024000100240003C014080B483B04F
:101D100000AF78600B467B8013467B707B78002B8E
:101D200003D07A887B689A6103E07B881A047B6819
:101D30009A6100BF0C37BD465DF8047B704780B4E4
:101D400085B000AF78600B467B807B685B69FB6089
:101D50007A88FB6813401A04FB68D9437B880B40E0
:101D60001A437B689A6100BF1437BD465DF8047B57
:101D70007047000080B584B000AF78607B68002BAE
:101D800001D101232BE17B6893F83D30DBB2002BBE
:101D900006D17B68002283F83C207868FFF750F872
:101DA0007B68242283F83D207B681B681A687B6867
:101DB0001B6822F001021A607B681B681A687B6846
:101DC0001B6842F400421A607B681B681A687B68D3
:101DD0001B6822F400421A6002F0F0FDF8607B6894
:101DE0005B68814A934207D8FB68804A934294BF5C
:101DF00001230023DBB206E0FB687D4A934294BFD7
:101E000001230023DBB2002B01D00123E7E0FB68B4
:101E1000784AA2FB03239B0CBB607B681B685B6852
:101E200023F03F017B681B68BA680A435A607B68ED
:101E30001B681B6A23F03F017B685B686A4A934218
:101E400002D8BB68013309E0BB684FF4967202FB0D
:101E500003F3694AA2FB03239B0901337A681268E2
:101E60000B4313627B681B68DB6923F44F4222F04B
:101E7000FF027B685B685C498B4219D8FB68591E7E
:101E80007B685B685B00B1FBF3F3591C40F6FC73A5
:101E90000B40002B0AD0FB68591E7B685B685B0017
:101EA000B1FBF3F30133C3F30B0351E004234FE021
:101EB0007B689B68002B11D1FB68581E7B685968B2
:101EC0000B465B000B44B0FBF3F30133C3F30B038E
:101ED000002B0CBF01230023DBB212E0FB68581E6D
:101EE0007B6859680B469B000B4499000B44B0FB80
:101EF000F3F30133C3F30B03002B0CBF01230023C7
:101F0000DBB2002B01D0012322E07B689B68002B11
:101F10000ED1FB68581E7B6859680B465B000B446A
:101F2000B0FBF3F30133C3F30B0343F400430FE0BF
:101F3000FB68581E7B6859680B469B000B44990050
:101F40000B44B0FBF3F30133C3F30B0343F44043FF
:101F5000796809681343CB617B681B681B6823F0B1
:101F6000C0017B68DA697B681B6A1A437B681B685F
:101F70000A431A607B681B689B6823F4034323F0C1
:101F8000FF037A6811697A68D26811437A68126827
:101F90000B4393607B681B68DB6823F0FF017B6861
:101FA0005A697B689B691A437B681B680A43DA603D
:101FB0007B681B681A687B681B6842F001021A6024
:101FC0007B6800221A647B68202283F83D207B68AE
:101FD00000221A637B68002283F83E200023184603
:101FE0001037BD4680BD00BFA08601007F841E0063
:101FF000FF083D0083DE1B43D34D621080B588B0DF
:1020000002AFF860084611461A4603467B810B462C
:102010003B811346FB80FFF783FB7861FB6893F8F5
:102020003D30DBB2202B40F0D9807B69009319232F
:1020300001226D49F86801F0BDFE0346002B01D076
:102040000223CCE0FB6893F83C30012B01D1022342
:10205000C5E0FB68012283F83C20FB681B681B6815
:1020600003F00103012B07D0FB681B681A68FB68AB
:102070001B6842F001021A60FB681B681A68FB6863
:102080001B6822F400621A60FB68212283F83D205D
:10209000FB68402283F83E20FB6800221A64FB683C
:1020A0003A6A5A62FB68BA8C5A85FB685B8D9AB2B1
:1020B000FB681A85FB684D4ADA62F8883A897989A3
:1020C0007B690193BB6A00930346F86801F034FD15
:1020D0000346002B52D0012381E07A69B96AF8687F
:1020E00001F03EFF0346002B0DD0FB681B6C042B58
:1020F00007D1FB681B681A68FB681B6842F4007212
:102100001A6001236BE0FB685B6A1A78FB681B6846
:102110001A61FB685B6A5A1CFB685A62FB681B8D7C
:10212000013B9AB2FB681A85FB685B8D9BB2013B51
:102130009AB2FB685A85FB681B685B6903F004036D
:10214000042B1BD1FB681B8D002B17D0FB685B6A2F
:102150001A78FB681B681A61FB685B6A5A1CFB688B
:102160005A62FB681B8D013B9AB2FB681A85FB68BB
:102170005B8D9BB2013B9AB2FB685A85FB681B8D55
:10218000002BAAD17A69B96AF86801F02AFF0346E0
:10219000002B0DD0FB681B6C042B07D1FB681B6860
:1021A0001A68FB681B6842F400721A60012316E08B
:1021B000FB681B681A68FB681B6842F400721A60AF
:1021C000FB68202283F83D20FB68002283F83E2034
:1021D000FB68002283F83C20002300E0022318461D
:1021E0001837BD4680BD00BF020010000000FFFF91
:1021F00080B487B000AFF860084611461A4603461F
:102200007B810B463B811346FB8000237B61FB688F
:1022100093F83D30DBB2202B40F09A80504B1B6886
:10222000DB08504AA2FB03231A0A13469B001344FF
:102230009A0013447B617B69013B7B617B69002BC6
:1022400016D1FB6800221A63FB68202283F83D2028
:10225000FB68002283F83E20FB681B6C43F02002E1
:10226000FB681A64FB68002283F83C20012370E0BD
:10227000FB681B689B6903F00203022BDBD0FB6841
:1022800093F83C30012B01D1022362E0FB6801226C
:1022900083F83C20FB681B681B6803F00103012BDB
:1022A00007D0FB681B681A68FB681B6842F00102D4
:1022B0001A60FB681B681A68FB681B6822F40062DE
:1022C0001A60FB68222283F83D20FB68402283F8D5
:1022D0003E20FB6800221A64FB683A6A5A62FB6877
:1022E000BA8C5A85FB685B8D9AB2FB681A85FB68CD
:1022F0001D4ADA627A89FB685A643A89FB689A64F3
:10230000FA88FB68DA64FB6800221A65FB681B68C0
:102310001A68FB681B6842F480621A60FB681B68DD
:102320001A68FB681B6842F480721A60FB6800221E
:1023300083F83C20FB681B8D002B07D0FB681B68D3
:102340005A68FB681B6842F4E0625A60002300E0B0
:10235000022318461C37BD465DF8047B704700BF5A
:102360000C00002089B5F8140000FFFF80B588B08C
:1023700000AF78600023BB617B681B685B687B6192
:102380007B68DB6A3B617B6893F83E30FB737B685C
:1023900093F83D30BB73FB7B102B03D0FB7B402BB2
:1023A00040F0C1807B681B689B69BB617B681B68D0
:1023B0005B69FB61FB6903F00103002B0DD13B69F5
:1023C000B3F52A0F03D03B69B3F12A4F01D10123A2
:1023D00000E00023012B00F03281FB6903F00103D0
:1023E000002B0CD07B695B0A03F00103002B06D0A5
:1023F000786801F098FE786800F083FD92E0FB6950
:10240000DB0803F00103002B09D07B695B0A03F0B2
:102410000103002B03D0786800F0F9FD82E0FB692E
:102420005B0803F00103002B09D07B695B0A03F012
:102430000103002B03D0786800F013FE72E0BB6943
:102440009B0803F00103002B3BD07B681B685B6893
:1024500003F40063B3F5006F00F0F380FB69DB0960
:1024600003F00103002B0FD07B699B0A03F00103EB
:10247000002B09D0FB699B0803F00103002B03D15B
:10248000786800F0F3F94DE0FB699B0803F0010365
:10249000002B00F0D6807B695B0A03F00103002B60
:1024A00000F0CF80BB7B212B03D1786800F07AFA53
:1024B000C7E0FB7B402B40F0C480786800F0E8FA6E
:1024C000BFE07B681B685B6803F40063B3F5006FD3
:1024D00000F0B780FB699B0903F00103002B0FD0CC
:1024E0007B699B0A03F00103002B09D0FB699B0861
:1024F00003F00103002B03D1786800F05DFB11E0CD
:10250000FB699B0803F00103002B00F09A807B69B4
:102510005B0A03F00103002B00F09380786800F061
:1025200006FC8EE08DE07B681B6C002B04D07B6882
:102530001B685B69FB6107E07B681B689B69BB618B
:102540007B681B685B69FB61FB695B0803F0010347
:10255000002B12D07B695B0A03F00103002B0CD027
:102560007B681B6C002B03D07B681B689B69BB617D
:10257000B969786800F0C4FF66E0FB691B0903F0E5
:102580000103002B09D07B695B0A03F00103002BD8
:1025900003D0786800F0FEFF56E0BB7B212B02D011
:1025A000BB7B292B25D1FB69DB0903F00103002B41
:1025B0000FD07B699B0A03F00103002B09D0FB6954
:1025C0009B0803F00103002B03D1786800F0DAFECA
:1025D00039E0FB699B0803F00103002B33D07B69D2
:1025E0005B0A03F00103002B2DD0786800F007FF91
:1025F00029E0FB699B0903F00103002B0FD07B69E5
:102600009B0A03F00103002B09D0FB699B0803F030
:102610000103002B03D1786800F012FF14E0FB697E
:102620009B0803F00103002B0ED07B695B0A03F0CB
:102630000103002B08D0786800F040FF04E000BFE1
:1026400002E000BF00E000BF2037BD4680BD80B57E
:102650008AB000AF78607B681B685B693B627B680F
:102660001B685B68FB6100237B627B6893F83E30EC
:10267000FB763B6A1B0A03F00103002B0ED0FB69BB
:102680001B0A03F00103002B08D07B6A43F001030F
:102690007B627B681B686FF480725A613B6A5B0ADD
:1026A00003F00103002B0ED0FB691B0A03F00103AA
:1026B000002B08D07B6A43F002037B627B681B68B7
:1026C0006FF400725A613B6A9B0A03F00103002B0E
:1026D0003FD0FB691B0A03F00103002B39D0FB7EBE
:1026E000BB767B685B8D9BB27B617B6893F83D30EA
:1026F000FB747B681B6BFB60BB7E202B12D17B695C
:10270000002B0FD1FB7C212B08D0FB7C292B05D083
:10271000FB7C282B06D1FB68212B03D1786801F0C4
:1027200069F816E07B681B686FF480625A617B6A07
:1027300043F004037B62FB7E102B02D0FB7E402B18
:1027400007D17B681B681A687B681B6842F40072BB
:102750001A603B6ADB0A03F00103002B0ED0FB6911
:102760001B0A03F00103002B08D07B6A43F0080327
:102770007B627B681B686FF400625A617B6A002B86
:1027800008D07B681A6C7B6A1A437B681A64786885
:1027900001F0A0F800BF2837BD4680BD80B483B0EB
:1027A00000AF786000BF0C37BD465DF8047B704712
:1027B00080B483B000AF786000BF0C37BD465DF8D1
:1027C000047B704780B483B000AF786000BF0C37E3
:1027D000BD465DF8047B704780B483B000AF78607D
:1027E00000BF0C37BD465DF8047B704780B483B0F2
:1027F00000AF78600B46FB7013463B8000BF0C3780
:10280000BD465DF8047B704780B483B000AF78604C
:1028100000BF0C37BD465DF8047B704780B483B0C1
:1028200000AF786000BF0C37BD465DF8047B704791
:1028300080B483B000AF786000BF0C37BD465DF850
:10284000047B704780B483B000AF786000BF0C3762
:10285000BD465DF8047B704780B483B000AF7860FC
:1028600000BF0C37BD465DF8047B704780B584B06F
:1028700000AF78607B6893F83D30FB737B6893F81A
:102880003E30BB737B68DB6ABB607B681B8D002BB3
:1028900050D1FB7B212B4DD1BB68082B1DD0BB68D1
:1028A000202B1AD0BB6813F5803F16D07B681B68BD
:1028B0005A687B681B6822F4E0625A607B681122C8
:1028C0001A637B68002283F83E207B68202283F80D
:1028D0003D207868FFF762FF60E07B681B685A68FC
:1028E0007B681B6822F4E0625A607B681B681A6888
:1028F0007B681B6842F400721A607B6800221A63CE
:102900007B68202283F83D207B6893F83E30DBB261
:10291000402B07D17B68002283F83E207868FFF7C0
:102920007DFF3BE07B68002283F83E207868FFF75C
:1029300035FF33E0FB7B212B05D0BB7B402B2DD11A
:10294000FB7B222B2AD17B685B8D9BB2002B08D1AD
:102950007B681B685A687B681B6822F480625A6037
:102960001CE07B6893F83E30DBB2402B03D17868E3
:1029700000F08EF812E07B685B6A1A787B681B684F
:102980001A617B685B6A5A1C7B685A627B685B8D44
:102990009BB2013B9AB27B685A85FFE700BF1037B4
:1029A000BD4680BD80B584B000AF78607B68DB6ACF
:1029B000FB607B6893F83D30DBB2212B64D17B68F0
:1029C0005B8D9BB2002B12D07B685B6A1A787B68A8
:1029D0001B681A617B685B6A5A1C7B685A627B6859
:1029E0005B8D9BB2013B9AB27B685A854CE0FB68D9
:1029F000082B1DD0FB68202B1AD0FB6813F5803FF5
:102A000016D07B681B685A687B681B6822F4E062FA
:102A10005A607B6811221A637B68002283F83E208B
:102A20007B68202283F83D207868FFF7B7FE2BE013
:102A30007B681B685A687B681B6822F4E0625A60F6
:102A40007B681B681A687B681B6842F400721A6016
:102A50007B6800221A637B68202283F83D207B6814
:102A600093F83E30DBB2402B07D17B68002283F81D
:102A70003E207868FFF7D2FE06E07B68002283F8EC
:102A80003E207868FFF78AFE00BF1037BD4680BD44
:102A900080B584B000AF78607B6893F83D30FB73FD
:102AA0007B681B6D002B1DD17B68DB6C012B0BD170
:102AB0007B689B6CDAB27B681B681A617B681B6D54
:102AC0009A1C7B681A6573E07B689B6C9BB21B1237
:102AD000DAB27B681B681A617B681B6D5A1C7B68C5
:102AE0001A6565E07B681B6D012B0BD17B689B6CC5
:102AF000DAB27B681B681A617B681B6D5A1C7B68A5
:102B00001A6555E07B681B6D022B51D1FB7B222B94
:102B10000DD17B681B681A687B681B6842F4807261
:102B20001A607B681B6D5A1C7B681A6540E07B68E5
:102B30005B8D9BB2002B15D0FB7B212B12D17B68C8
:102B40005B6A1A787B681B681A617B685B6A5A1C2F
:102B50007B685A627B685B8D9BB2013B9AB27B6853
:102B60005A8525E07B685B8D9BB2002B20D1FB7BD7
:102B7000212B1DD17B681B685A687B681B6822F477
:102B8000E0625A607B681B681A687B681B6842F4C5
:102B900000721A607B6800221A637B68202283F827
:102BA0003D207B68002283F83E207868FFF736FEE0
:102BB00000BF1037BD4680BD80B584B000AF7860DF
:102BC0007B6893F83D30DBB2222B40F0AC807B6811
:102BD0005B8D9BB2FB60FB68032B21D97B681B6874
:102BE0001A697B685B6AD2B21A707B685B6A5A1C8E
:102BF0007B685A627B685B8D9BB2013B9AB27B68B3
:102C00005A857B685B8D9BB2032B40F08C807B6880
:102C10001B685A687B681B6822F480625A6082E0F5
:102C20007B68DB6A022B75D0FB68012B02D0FB6846
:102C3000002B6FD1786801F015FA0346002B42D1C2
:102C40007B681B681A687B681B6822F480621A60C4
:102C50007B681B685A687B681B6822F4E0625A60D4
:102C60007B681B681A697B685B6AD2B21A707B68E2
:102C70005B6A5A1C7B685A627B685B8D9BB2013B26
:102C80009AB27B685A857B68202283F83D207B6856
:102C900093F83E30DBB2402B0AD17B68002283F8E8
:102CA0003E207B6800221A637868FFF7C1FD3AE096
:102CB0007B68002283F83E207B6812221A637868C2
:102CC000FFF776FD2FE07B681B685A687B681B68FE
:102CD00022F4E0625A607B681B681A697B685B6A51
:102CE000D2B21A707B685B6A5A1C7B685A627B6836
:102CF0005B8D9BB2013B9AB27B685A857B68202230
:102D000083F83D207B68002283F83E207868FFF737
:102D100099FD08E07B681B685A687B681B6822F491
:102D200080625A60FFE700BF1037BD4680BD80B5A6
:102D300084B000AF78607B68DB6AFB607B685B8D8A
:102D40009BB2042B1BD17B681B685A687B681B688D
:102D500022F480625A607B681B681A697B685B6A30
:102D6000D2B21A707B685B6A5A1C7B685A627B68B5
:102D70005B8D9BB2013B9AB27B685A85BDE07B6854
:102D80005B8D9BB2032B29D17B681B685A687B68DB
:102D90001B6822F480625A60FB68042B0AD0FB682F
:102DA000022B07D07B681B681A687B681B6822F4BB
:102DB00080621A607B681B681A697B685B6AD2B2A2
:102DC0001A707B685B6A5A1C7B685A627B685B8DF1
:102DD0009BB2013B9AB27B685A858EE07B685B8D23
:102DE0009BB2022B76D1FB68012B02D0FB68102B23
:102DF00008D17B681B681A687B681B6822F48062B4
:102E00001A6019E0FB68042B02D0FB68022B08D182
:102E10007B681B681A687B681B6842F480621A60D2
:102E20000AE0FB68102B07D07B681B681A687B6878
:102E30001B6842F400721A607B681B681A697B6821
:102E40005B6AD2B21A707B685B6A5A1C7B685A62F2
:102E50007B685B8D9BB2013B9AB27B685A857B682D
:102E60001B681A697B685B6AD2B21A707B685B6AFE
:102E70005A1C7B685A627B685B8D9BB2013B9AB29D
:102E80007B685A857B681B685A687B681B6822F4DC
:102E900040725A607B68202283F83D207B6893F85B
:102EA0003E30DBB2402B0AD17B68002283F83E2003
:102EB0007B6800221A637868FFF7BAFC1DE07B6824
:102EC000002283F83E207B6812221A637868FFF79D
:102ED0006FFC12E07B681B681A697B685B6AD2B280
:102EE0001A707B685B6A5A1C7B685A627B685B8DD0
:102EF0009BB2013B9AB27B685A8500BF1037BD4632
:102F000080BD80B483B000AF78607B6893F83E30BA
:102F1000DBB2402B17D17B681B6D002B09D17B687E
:102F20005B6CDBB21A467B681B6802F0FE021A611A
:102F300067E07B685B6CDBB243F00103DAB27B686D
:102F40001B681A615DE07B681B69B3F5804F33D164
:102F50007B6893F83D30DBB2212B09D17B685B6C39
:102F6000DBB21A467B681B6802F0FE021A6108E0B9
:102F70007B685B6CDBB243F00103DAB27B681B68F1
:102F80001A617B685B6B002B04D07B685B6BDB6B2F
:102F9000002B08D17B689B6B002B32D07B689B6B2E
:102FA000DB6B002B2DD07B681B685A687B681B6825
:102FB00042F400625A6024E07B681B6D002B0ED146
:102FC0007B685B6C9BB2DB11DBB203F00603DBB208
:102FD00063F00F03DAB27B681B681A6111E07B684B
:102FE0001B6D012B0DD17B685B6C9BB2DB11DBB2DF
:102FF00003F00603DBB263F00E03DAB27B681B68F2
:103000001A6100BF0C37BD465DF8047B704780B481
:1030100083B000AF78607B685B6CDAB27B681B685A
:103020001A617B685B6B002B04D07B685B6BDB6B8E
:10303000002B08D17B689B6B002B0CD07B689B6BB3
:10304000DB6B002B07D07B681B685A687B681B68AA
:1030500042F400625A6000BF0C37BD465DF8047B45
:10306000704780B491B000AF78607B6893F83E30D1
:1030700087F83F307B68DB6ABB637B681B6B7B63D5
:103080007B6893F83D30DBB2222B40F069817B688E
:103090001B6D002B0FD197F83F30402B0BD1002335
:1030A0003B637B681B685B693B637B681B689B6950
:1030B0003B633B6B60E17B681B6D002B1DD17B6824
:1030C0001B69B3F5404F18D10023FB627B681B6876
:1030D0005B69FB627B681B689B69FB62FB6A7B68C0
:1030E0001B681A687B681B6842F480721A607B68F0
:1030F0001B6D5A1C7B681A653EE17B685B8D9BB239
:10310000002B13D10023BB627B681B685B69BB6229
:103110007B681B689B69BB62BB6A7B681B681A681B
:103120007B681B6842F400721A6015E17B685B8D56
:103130009BB2012B40F08A80BB6B13F5803F37D1E7
:103140007B681B681A687B681B6822F480621A60BF
:103150007B681B685B6803F40063B3F5006F13D1F1
:103160007B681B681A687B681B6822F480621A609F
:1031700000237B627B681B685B697B627B681B68E2
:103180009B697B627B6AE7E000233B627B681B688C
:103190005B693B627B681B689B693B623B6A7B683F
:1031A0001B681A687B681B6842F400721A60D3E0DF
:1031B000BB6B082B2ED0BB6B202B2BD07B6B122B29
:1031C00002D1BB6B012B25D1BB6B042B0ED0BB6B8B
:1031D000022B0BD0BB6B102B08D07B681B681A68C6
:1031E0007B681B6822F480621A6007E07B681B68BA
:1031F0001A687B681B6842F480621A600023FB61D6
:103200007B681B685B69FB617B681B689B69FB6172
:10321000FB69A1E07B681B681A687B681B6822F465
:1032200080621A600023BB617B681B685B69BB61BD
:103230007B681B689B69BB61BB697B681B681A68FC
:103240007B681B6842F400721A6085E07B685B8DC6
:103250009BB2022B4DD1BB6B042B16D0BB6B022B48
:1032600013D0BB6B102B10D07B681B681A687B686F
:103270001B6822F480621A607B681B681A687B688E
:103280001B6842F400621A6007E07B681B681A68DA
:103290007B681B6842F480621A607B681B685B680D
:1032A00003F40063B3F5006F17D1BB6B13F5803FD8
:1032B0000BD0BB6B012B08D0BB6B082B05D0BB6BB5
:1032C000102B02D0BB6B202B07D17B681B685A6880
:1032D0007B681B6842F480525A6000237B617B68E4
:1032E0001B685B697B617B681B689B697B617B6991
:1032F00032E07B681B681A687B681B6842F4806256
:103300001A607B681B685B6803F40063B3F5006FA9
:1033100017D1BB6B13F5803F0BD0BB6B012B08D0D3
:10332000BB6B082B05D0BB6B102B02D0BB6B202BCB
:1033300007D17B681B685A687B681B6842F480521F
:103340005A6000233B617B681B685B693B617B685B
:103350001B689B693B613B697B6800221A650BE037
:103360000023FB607B681B685B69FB607B681B68F4
:103370009B69FB60FB68FFE700BF4437BD465DF813
:10338000047B704780B584B000AF78607B6893F8A9
:103390003D30FB737B685B8D9BB2002B2BD07B6831
:1033A0005B6A1A787B681B681A617B685B6A5A1CC7
:1033B0007B685A627B685B8D9BB2013B9AB27B68EB
:1033C0005A857B685B8D9BB2002B14D1FB7B292B2C
:1033D00011D17B681B685A687B681B6822F4806285
:1033E0005A607B6821221A637B68282283F83D207B
:1033F0007868FFF7E7F900BF1037BD4680BD80B49D
:1034000083B000AF78607B685B8D9BB2002B11D0DE
:103410007B685B6A1A787B681B681A617B685B6AE9
:103420005A1C7B685A627B685B8D9BB2013B9AB2E7
:103430007B685A8500BF0C37BD465DF8047B70473A
:1034400080B584B000AF78607B6893F83D30FB7343
:103450007B685B8D9BB2002B2CD07B681B681A6944
:103460007B685B6AD2B21A707B685B6A5A1C7B68A5
:103470005A627B685B8D9BB2013B9AB27B685A852E
:103480007B685B8D9BB2002B14D1FB7B2A2B11D167
:103490007B681B685A687B681B6822F480625A60EC
:1034A0007B6822221A637B68282283F83D20786893
:1034B000FFF792F900BF1037BD4680BD80B483B0DE
:1034C00000AF78607B685B8D9BB2002B12D07B686D
:1034D0001B681A697B685B6AD2B21A707B685B6A88
:1034E0005A1C7B685A627B685B8D9BB2013B9AB227
:1034F0007B685A8500BF0C37BD465DF8047B70477A
:1035000080B584B000AF786039600023FB737B68BE
:1035100093F83D30DBB203F02803282B27D17B68DA
:103520001B685A687B681B6822F480625A603B689B
:103530009B0803F00103002B01D10123FB733B68BF
:10354000DB0903F00103002B03D17B68DB68BB813F
:1035500002E07B689B69BB817B68002283F83C208A
:10356000BA89FB7B19467868FFF740F90EE0002323
:10357000BB607B681B685B69BB607B681B689B6981
:10358000BB60BB687B68002283F83C2000BF10371B
:10359000BD4680BD80B584B000AF78607B6893F88D
:1035A0003D30FB737B681B685A687B681B6822F49C
:1035B000E0625A600023BB607B681B685B69BB608C
:1035C0007B681B681A687B681B6842F001021A60FE
:1035D000BB687B681B681A687B681B6822F4806282
:1035E0001A607B681B685B6803F40063B3F5006FC7
:1035F00072D1FB7B222B02D0FB7B2A2B35D17B683F
:103600009B6B1B685B689AB27B685A857B685B8D95
:103610009BB2002B05D07B681B6C43F004027B68D7
:103620001A647B681B685A687B681B6822F4006216
:103630005A607B689B6B1846FEF7D5F90346012B51
:1036400049D07B689B6B694A1A657B689B6B1846FF
:10365000FEF7A7F90346002B3DD07B689B6B1B6DE3
:103660007A68926B1046984735E07B685B6B1B6805
:103670005B689AB27B685A857B685B8D9BB2002B36
:1036800005D07B681B6C43F004027B681A647B687E
:103690001B685A687B681B6822F400625A607B686A
:1036A0005B6B1846FEF79FF90346012B14D07B682D
:1036B0005B6B4E4A1A657B685B6B1846FEF771F9C7
:1036C0000346002B08D07B685B6B1B6D7A68526BDE
:1036D0001046984700E000BF7B685B8D9BB2002BD3
:1036E0003ED07B681B685B6903F00403042B12D196
:1036F0007B681B681A697B685B6AD2B21A707B6848
:103700005B6A5A1C7B685A627B685B8D9BB2013B8B
:103710009AB27B685A857B681B685B6903F040033B
:10372000402B12D17B681B681A697B685B6AD2B236
:103730001A707B685B6A5A1C7B685A627B685B8D77
:103740009BB2013B9AB27B685A857B685B8D9BB2CA
:10375000002B05D07B681B6C43F004027B681A6465
:103760007B681B6C002B03D0786800F0B3F839E05D
:10377000FB7B2A2B09D17B6800221A637B682822F5
:1037800083F83D207868FFF727F87B6893F83D3091
:10379000DBB2282B11D17B68154ADA627B680022E4
:1037A0001A637B68202283F83D207B68002283F81F
:1037B0003E207868FFF728F814E07B681B6B222B0B
:1037C00002D0FB7B222B0DD17B6800221A637B6821
:1037D000202283F83D207B68002283F83E20786811
:1037E000FEF7FAFF00BF1037BD4680BD653C0008FC
:1037F0000000FFFF80B584B000AF78607B6893F86D
:103800003D30FB737B68DB6ABB60BB68082B02D072
:10381000BB68202B29D1FB7B282B26D17B682C4A27
:10382000DA627B681B685A687B681B6822F4E06276
:103830005A607B681B686FF480625A617B681B6802
:103840001A687B681B6822F480621A607B68002219
:103850001A637B68202283F83D207B68002283F86E
:103860003E207868FEF7D0FF2EE0FB7B212B26D18F
:103870007B68174ADA627B6821221A637B68202200
:1038800083F83D207B68002283F83E207B681B681C
:103890005A687B681B6822F4E0625A607B681B6888
:1038A0006FF480625A617B681B681A687B681B68CA
:1038B00022F480621A607868FEF784FF04E07B6877
:1038C0001B686FF480625A6100BF1037BD4680BD2F
:1038D0000000FFFF80B584B000AF78607B6893F88C
:1038E0003D30FB737B6893F83E30BB73BB7B102B82
:1038F00002D0BB7B402B0AD1FB7B222B07D17B68FC
:103900001B681A687B681B6822F400621A60FB7BE4
:1039100003F02803282B07D17B6800221A637B68F9
:10392000282283F83D2015E07B681B685B6803F460
:103930000063B3F5006F0AD0FB7B602B07D07B6878
:10394000202283F83D207B68002283F83E207B689C
:1039500000221A637B681B685B6803F40063B3F59D
:10396000006F62D17B681B685A687B681B6822F411
:1039700000625A607B685B6B93F83530DBB2012BD9
:1039800020D07B685B6B6A4A1A657B685B6B184664
:10399000FEF707F80346002B00F089807B681B6860
:1039A0001A687B681B6822F001021A607B6820227B
:1039B00083F83D207B685B6B1B6D7A68526B104609
:1039C000984774E07B689B6B594A1A657B689B6BD0
:1039D0001846FDF7E6FF0346002B68D07B681B689E
:1039E0005B6903F04003402B0BD17B681B681A69AD
:1039F0007B685B6AD2B21A707B685B6A5A1C7B6810
:103A00005A627B681B681A687B681B6822F0010297
:103A10001A607B68202283F83D207B689B6B1B6DBE
:103A20007A68926B1046984741E07B6893F83D3086
:103A3000DBB2602B25D17B68202283F83D207B6898
:103A400000221A647B681B685B6903F04003402B0B
:103A50000BD17B681B681A697B685B6AD2B21A70EB
:103A60007B685B6A5A1C7B685A627B681B681A68B1
:103A70007B681B6822F001021A607868FEF7ECFE92
:103A800015E07B681B685B6903F04003402B0BD19A
:103A90007B681B681A697B685B6AD2B21A707B68A4
:103AA0005B6A5A1C7B685A627868FEF7CBFE7B68BB
:103AB0001B6CBB60BB6803F00103002B0ED1BB681D
:103AC00003F00203002B09D1BB6803F00403002BB1
:103AD00004D1BB6803F00803002B07D07B681B6888
:103AE0005A687B681B6822F4E0625A607B6893F82E
:103AF0003D30FB737B681B6C03F00403042B13D174
:103B0000FB7B282B10D17B680A4ADA627B68002293
:103B10001A637B68202283F83D207B68002283F8AB
:103B20003E207868FEF770FE00BF1037BD4680BDAE
:103B3000653C00080000FFFF80B588B002AFF86068
:103B4000084611461A4603467B810B463B811346C5
:103B5000FB80FB681B681A68FB681B6842F4807274
:103B60001A607B6A00933B6A00224FF00111F868EB
:103B700000F020F90346002B0DD0FB681B681B6882
:103B800003F48073B3F5807F03D1FB684FF40072B8
:103B90001A6403235FE07B89DBB21A46FB681B686B
:103BA00002F0FE021A617B6A3A6A2D49F86800F059
:103BB00058F90346002B01D001234CE000237B6120
:103BC000FB681B685B697B61FB681B689B697B61A9
:103BD0007B697A6A396AF86800F0C2F90346002BFB
:103BE0000DD0FB681B6C042B07D1FB681B681A689F
:103BF000FB681B6842F400721A6001232BE0FB880B
:103C0000012B05D13B89DAB2FB681B681A6121E000
:103C10003B891B0A9BB2DAB2FB681B681A617A6A9D
:103C2000396AF86800F09CF90346002B0DD0FB6858
:103C30001B6C042B07D1FB681B681A68FB681B68A8
:103C400042F400721A60012305E03B89DAB2FB6896
:103C50001B681A61002318461837BD4680BD00BF97
:103C60000200010080B586B000AF78600023FB60E1
:103C70007B689B6B7B617B6993F83D30FB744B4B9E
:103C80001B68DB084A4AA2FB03231A0A13469B005F
:103C90001344DA00D31AFB60FB68002B06D17B6962
:103CA0001B6C43F020027B691A640AE0FB68013B4D
:103CB000FB607B691B681B6803F40073B3F5007F2E
:103CC000EAD07B695B6B002B03D07B695B6B0022C6
:103CD000DA637B699B6B002B03D07B699B6B0022B3
:103CE000DA637B691B681A687B691B6822F480624F
:103CF0001A607B6900225A857B695B6B002B03D0BD
:103D00007B695B6B00221A657B699B6B002B03D080
:103D10007B699B6B00221A657B691B681A687B694B
:103D20001B6822F001021A607B6993F83D30DBB218
:103D3000602B0ED17B69202283F83D207B69002215
:103D400083F83E207B6900221A647869FEF784FDBF
:103D500027E0FB7C03F02803282B17D17B691B6825
:103D60001A687B691B6842F001021A607B691B6854
:103D70001A687B691B6842F480621A607B690022C2
:103D80001A637B69282283F83D2007E07B692022A3
:103D900083F83D207B69002283F83E207869FEF796
:103DA00051FD00BF1837BD4680BD00BF0C0000208C
:103DB00089B5F81480B584B000AFF860B9603B6095
:103DC0001346FB7125E03B68B3F1FF3F21D0FDF7BF
:103DD000A7FC0246BB69D31A3A689A4202D33B68F1
:103DE000002B16D1FB6800221A63FB68202283F89F
:103DF0003D20FB68002283F83E20FB681B6C43F0EB
:103E00002002FB681A64FB68002283F83C2001232F
:103E100023E0BB681B0CDBB2012B0DD1FB681B68D8
:103E20005B69DA43BB6813409BB2002B0CBF0123D4
:103E30000023DBB21A460CE0FB681B689B69DA437F
:103E4000BB6813409BB2002B0CBF01230023DBB2E5
:103E50001A46FB799A42B6D0002318461037BD4661
:103E600080BD80B584B000AFF860B9607A603B6017
:103E700051E0FB681B685B6903F48063B3F5806FF6
:103E800023D1FB681B681A68FB681B6842F4007248
:103E90001A60FB681B686FF480625A61FB6800223D
:103EA0001A63FB68202283F83D20FB68002283F818
:103EB0003E20FB681B6C43F00402FB681A64FB683D
:103EC000002283F83C20012346E07B68B3F1FF3FEA
:103ED00021D0FDF725FC02463B68D31A7A689A4246
:103EE00002D37B68002B16D1FB6800221A63FB68A3
:103EF000202283F83D20FB68002283F83E20FB68E7
:103F00001B6C43F02002FB681A64FB68002283F8F4
:103F10003C20012320E0BB681B0CDBB2012B0CD141
:103F2000FB681B685B69DA43BB6813409BB2002BDC
:103F300014BF01230023DBB20BE0FB681B689B6905
:103F4000DA43BB6813409BB2002B14BF012300234C
:103F5000DBB2002B8DD1002318461037BD4680BD43
:103F600080B584B000AFF860B9607A602DE0F86881
:103F700000F0AAF80346002B01D001232DE0BB6816
:103F8000B3F1FF3F21D0FDF7CBFB02467B68D31A8C
:103F9000BA689A4202D3BB68002B16D1FB68002294
:103FA0001A63FB68202283F83D20FB68002283F817
:103FB0003E20FB681B6C43F02002FB681A64FB6820
:103FC000002283F83C20012307E0FB681B685B6943
:103FD00003F08003802BCAD1002318461037BD465A
:103FE00080BD80B584B000AFF860B9607A602DE024
:103FF000F86800F069F80346002B01D001232DE09A
:10400000BB68B3F1FF3F21D0FDF78AFB02467B6816
:10401000D31ABA689A4202D3BB68002B16D1FB6848
:1040200000221A63FB68202283F83D20FB680022EF
:1040300083F83E20FB681B6C43F02002FB681A6487
:10404000FB68002283F83C20012307E0FB681B6823
:104050005B6903F00403042BCAD100231846103710
:10406000BD4680BD80B485B000AF78600023FB60A2
:10407000134B1B68DB08134AA2FB03231A0A1346DF
:104080009B001344FB60FB68013BFB60FB68002B5B
:1040900007D17B681B6C43F020027B681A64012304
:1040A00008E07B681B681B6803F40073B3F5007FAE
:1040B000E9D0002318461437BD465DF8047B7047ED
:1040C0000C00002089B5F81480B483B000AF78608C
:1040D0007B681B685B6903F48063B3F5806F1BD159
:1040E0007B681B686FF480625A617B6800221A63E8
:1040F0007B68202283F83D207B68002283F83E20E5
:104100007B681B6C43F004027B681A647B680022A6
:1041100083F83C20012300E0002318460C37BD46FD
:104120005DF8047B704780B483B000AF78607B6833
:10413000DB6AB3F52A0F03D17B680122DA6207E05C
:104140007B68DB6AB3F12A4F02D17B680822DA620E
:1041500000BF0C37BD465DF8047B704780B586B064
:1041600000AF78607B68002B01D1012367E27B6898
:104170001B6803F00103002B75D0884B9B6803F08C
:104180000C03042B0CD0854B9B6803F00C03082B0D
:1041900012D1824B5B6803F48003B3F5800F0BD11F
:1041A0007E4B1B6803F40033002B5BD07B685B689D
:1041B000002B57D1012342E27B685B68B3F5803F57
:1041C00006D1764B1B68754A43F4803313601DE0BB
:1041D0007B685B68B3F5A02F0CD1704B1B686F4AEE
:1041E00043F4802313606D4B1B686C4A43F48033A7
:1041F00013600BE0694B1B68684A23F4803313603B
:10420000664B1B68654A23F4802313607B685B68F8
:10421000002B13D0FDF784FA386108E0FDF780FA2F
:1042200002463B69D31A642B01D9032307E25B4B97
:104230001B6803F40033002BF0D014E0FDF770FA94
:10424000386108E0FDF76CFA02463B69D31A642B2B
:1042500001D90323F3E1514B1B6803F40033002B16
:10426000F0D100E000BF7B681B6803F00203002B65
:1042700063D04A4B9B6803F00C03002B0BD0474BD9
:104280009B6803F00C03082B1CD1444B5B6803F4C0
:104290008003002B16D1414B1B6803F00203002B57
:1042A00005D07B68DB68012B01D00123C7E13B4BC4
:1042B0001B6823F0F8027B681B69DB003749134356
:1042C0000B603AE07B68DB68002B20D0344B012286
:1042D0001A60FDF725FA386108E0FDF721FA024679
:1042E0003B69D31A022B01D90323A8E12B4B1B688E
:1042F00003F00203002BF0D0284B1B6823F0F802D8
:104300007B681B69DB00254913430B6015E0244BD8
:1043100000221A60FDF704FA386108E0FDF700FAA0
:1043200002463B69D31A022B01D9032387E11B4BB9
:104330001B6803F00203002BF0D17B681B6803F0BD
:104340000803002B36D07B685B69002B16D0154B19
:1043500001221A60FDF7E4F9386108E0FDF7E0F9A1
:1043600002463B69D31A022B01D9032367E10B4BA9
:104370005B6F03F00203002BF0D01BE0094B00221F
:104380001A60FDF7CDF938610EE0FDF7C9F9024674
:104390003B69D31A022B07D9032350E100380240AE
:1043A00000004742800E4742884B5B6F03F00203D8
:1043B000002BEAD17B681B6803F00403002B00F09C
:1043C00097800023FB75814B1B6C03F08053002BFF
:1043D0000FD10023BB607D4B1B6C7C4A43F08053A4
:1043E00013647A4B1B6C03F08053BB60BB680123E2
:1043F000FB75774B1B6803F48073002B18D1744B4B
:104400001B68734A43F480731360FDF789F93861C0
:1044100008E0FDF785F902463B69D31A022B01D962
:1044200003230CE16A4B1B6803F48073002BF0D06C
:104430007B689B68012B06D1644B1B6F634A43F07A
:10444000010313671CE07B689B68052B0CD15F4B55
:104450001B6F5E4A43F0040313675C4B1B6F5B4AA0
:1044600043F0010313670BE0584B1B6F574A23F0CF
:1044700001031367554B1B6F544A23F00403136762
:104480007B689B68002B15D0FDF74AF938610AE07C
:10449000FDF746F902463B69D31A41F2883293424E
:1044A00001D90323CBE0494B1B6F03F00203002B20
:1044B000EED014E0FDF734F938610AE0FDF730F989
:1044C00002463B69D31A41F28832934201D9032351
:1044D000B5E03E4B1B6F03F00203002BEED1FB7DDA
:1044E000012B05D1394B1B6C384A23F080531364E0
:1044F0007B689B69002B00F0A180344B9B6803F024
:104500000C03082B5CD07B689B69022B41D1314B9B
:1045100000221A60FDF704F9386108E0FDF700F9A0
:1045200002463B69D31A022B01D9032387E0274BAC
:104530001B6803F00073002BF0D17B68DA697B689D
:104540001B6A1A437B685B6A9B011A437B689B6A00
:104550005B08013B1B041A437B68DB6A1B061B4993
:1045600013434B601B4B01221A60FDF7D9F83861E9
:1045700008E0FDF7D5F802463B69D31A022B01D9B2
:1045800003235CE0114B1B6803F00073002BF0D099
:1045900054E0104B00221A60FDF7C2F8386108E0C1
:1045A000FDF7BEF802463B69D31A022B01D903235B
:1045B00045E0064B1B6803F00073002BF0D13DE093
:1045C0007B689B69012B07D1012338E0003802404A
:1045D00000700040600047421B4B5B68FB607B68DB
:1045E0009B69012B28D0FB6803F480027B68DB69A0
:1045F0009A4221D1FB6803F03F027B681B6A9A4212
:104600001AD1FA6847F6C07313407A68526A920169
:10461000934211D1FB6803F440327B689B6A5B08CC
:10462000013B1B049A4207D1FB6803F070627B6870
:10463000DB6A1B069A4201D0012300E000231846E2
:104640001837BD4680BD00BF0038024080B584B039
:1046500000AF786039607B68002B01D10123CCE08A
:10466000684B1B6803F007033A689A420CD9654B04
:104670003A68D2B21A70634B1B6803F007033A68BA
:104680009A4201D00123B8E07B681B6803F0020363
:10469000002B20D07B681B6803F00403002B05D09F
:1046A000594B9B68584A43F4E05393607B681B68FE
:1046B00003F00803002B05D0534B9B68524A43F488
:1046C00060439360504B9B6823F0F0027B689B68CB
:1046D0004D4913438B607B681B6803F00103002B7B
:1046E00044D07B685B68012B07D1474B1B6803F400
:1046F0000033002B19D101237FE07B685B68022B1C
:1047000003D07B685B68032B07D13F4B1B6803F02A
:104710000073002B09D101236FE03B4B1B6803F0B2
:104720000203002B01D1012367E0374B9B6823F084
:1047300003027B685B68344913438B60FCF7F0FF2E
:10474000F8600AE0FCF7ECFF0246FB68D31A41F27E
:104750008832934201D903234FE02B4B9B6803F02F
:104760000C027B685B689B009A42EBD1254B1B686F
:1047700003F007033A689A420CD2224B3A68D2B24D
:104780001A70204B1B6803F007033A689A4201D065
:10479000012332E07B681B6803F00403002B08D080
:1047A000194B9B6823F4E0527B68DB68164913437E
:1047B0008B607B681B6803F00803002B09D0124B49
:1047C0009B6823F460427B681B69DB000E4913433E
:1047D0008B6000F021F802460B4B9B681B0903F02D
:1047E0000F030A49CB5C22FA03F3094A1360094B11
:1047F0001B681846FCF750FF002318461037BD46CB
:1048000080BD00BF003C02400038024094660008B2
:104810000C000020100000202DE9B04F90B000AF38
:1048200000237B630023FB6300233B630023BB6304
:10483000594B9B6803F00C03082B0DD0082B00F29A
:10484000A180002B02D0042B03D09BE0534BBB6311
:104850009BE0534BBB6398E04F4B5B6803F03F0317
:104860007B634D4B5B6803F48003002B28D04A4BDD
:104870005B689B0900223B627A623B6AC3F30800D3
:104880000021474B03FB01F2002300FB03F3134419
:10489000434AA0FB0212FA620A46BA62FA6A134459
:1048A000FB627B6B0022BB61FA61D7E90623D7E983
:1048B0000A01FBF7EDFC02460B461346FB6353E08F
:1048C000354B5B689B0900223B617A613B69C3F30E
:1048D000080A4FF0000B52465B464FF000004FF0C5
:1048E0000001590141EAD261500102460B46B2EB88
:1048F0000A0863EB0B094FF000024FF000034FEA88
:10490000891343EA98634FEA8812B2EB080463EB19
:1049100009054FF000024FF00003EB0043EA547327
:10492000E20014461D4614EB0A033B6045EB0B0303
:104930007B604FF000024FF00003D7E900452946A5
:104940008B02214643EA915321468A0210461946BA
:104950007B6B0022BB60FA60D7E90223FBF798FC6F
:1049600002460B461346FB630B4B5B681B0C03F0C4
:10497000030301335B003B63FA6B3B6BB2FBF3F366
:10498000BB6302E0054BBB6300BFBB6B18464037FF
:10499000BD46BDE8B08F00BF003802400024F400DF
:1049A00040787D0180B400AF034B1B681846BD46BC
:1049B0005DF8047B704700BF0C00002080B500AF9D
:1049C000FFF7F0FF0246054B9B689B0A03F00703C5
:1049D0000349CB5C22FA03F3184680BD003802403D
:1049E000A466000880B582B000AF78607B68002BB9
:1049F00001D101237BE07B685B6A002B08D17B68D7
:104A00005B68B3F5827F09D07B680022DA6105E03C
:104A10007B6800221A617B6800225A617B68002251
:104A20009A627B6893F85130DBB2002B06D17B6829
:104A3000002283F850207868FCF75EFC7B68022235
:104A400083F851207B681B681A687B681B6822F01A
:104A500040021A607B685B6803F482727B689B6823
:104A600003F404431A437B68DB6803F400631A43CE
:104A70007B681B6903F002031A437B685B6903F0E0
:104A800001031A437B689B6903F400731A437B6834
:104A9000DB6903F038031A437B681B6A03F0800369
:104AA00042EA03017B689B6A03F400527B681B683F
:104AB0000A431A607B689B691B0C03F004017B6846
:104AC0005B6A03F010027B681B680A435A607B68CC
:104AD0001B68DA697B681B6822F40062DA617B6814
:104AE00000225A657B68012283F851200023184672
:104AF0000837BD4680BD000080B487B000AFF860C5
:104B0000B9601346FB800023FB75FB6893F85030B7
:104B1000012B01D102236FE0FB68012283F85020B2
:104B2000BB68002B02D0FB88002B02D10123FB7550
:104B30005DE0FB6893F85130DBB2012B02D0022319
:104B4000FB7554E0FB68032283F85120FB680022C8
:104B50005A65FB68BA681A63FB68FA889A86FB682C
:104B6000FA88DA86FB6800229A63FB6800229A873B
:104B7000FB680022DA87FB6800221A64FB68DB68A6
:104B8000002B03D0FB681F4A5A6402E0FB681E4AF0
:104B90005A64FB689B68B3F5004F0FD1FB681B6834
:104BA0001A68FB681B6822F040021A60FB681B68E9
:104BB0001A68FB681B6842F480421A60FB681B6835
:104BC0005A68FB681B6842F0A0025A60FB681B68C9
:104BD0001B6803F04003402B08D0FB681B681A6871
:104BE000FB681B6842F040021A6000E000BFFB68EF
:104BF000002283F85020FB7D18461C37BD465DF827
:104C0000047B7047A34E00085D4E000880B588B055
:104C100000AF78607B681B685B68FB617B681B6822
:104C20009B68BB61BB699B0903F00103002B0FD19B
:104C3000BB6903F00103002B0AD0FB699B0903F059
:104C40000103002B04D07B681B6C78689847D7E081
:104C5000BB695B0803F00103002B0AD0FB69DB0989
:104C600003F00103002B04D07B685B6C78689847E5
:104C7000C6E0BB695B0903F00103002B0CD1BB69E3
:104C80009B0903F00103002B06D1BB691B0A03F04B
:104C90000103002B00F0B480FB695B0903F0010302
:104CA000002B00F0AD80BB699B0903F00103002BD2
:104CB00023D07B6893F85130DBB2032B11D07B6893
:104CC0005B6D43F004027B685A6500237B617B685F
:104CD0001B68DB687B617B681B689B687B617B6909
:104CE0000BE000233B617B681B68DB683B617B68F2
:104CF0001B689B683B613B6982E0BB695B0903F011
:104D00000103002B14D07B685B6D43F001027B68CC
:104D10005A650023FB607B681B689B68FB607B68AF
:104D20001B681A687B681B6822F040021A60FB68E7
:104D3000BB691B0A03F00103002B0CD07B685B6D81
:104D400043F008027B685A650023BB607B681B68E0
:104D50009B68BB60BB687B685B6D002B4FD07B683A
:104D60001B685A687B681B6822F0E0025A607B6807
:104D7000012283F85120FB6903F00203002B04D1C8
:104D8000FB6903F00103002B34D07B681B685A6871
:104D90007B681B6822F003025A607B68DB6C002B87
:104DA00011D07B68DB6C184A1A657B68DB6C18468F
:104DB000FCF7F7FD0346002B05D07B685B6D43F0E5
:104DC00040027B685A657B689B6C002B16D07B6821
:104DD0009B6C0D4A1A657B689B6C1846FCF7E1FDDD
:104DE0000346002B0AD07B685B6D43F040027B6872
:104DF0005A6503E0786800F013F800E000BF00BFD8
:104E00002037BD4680BD00BF354E000880B483B05A
:104E100000AF786000BF0C37BD465DF8047B70477B
:104E200080B483B000AF786000BF0C37BD465DF83A
:104E3000047B704780B584B000AF78607B689B6B63
:104E4000FB60FB680022DA87FB680022DA86F868DC
:104E5000FFF7E6FF00BF1037BD4680BD80B582B0CA
:104E600000AF78607B681A6B7B681B680C33127824
:104E70001A707B681B6B5A1C7B681A637B68DB8E1D
:104E80009BB2013B9AB27B68DA867B68DB8E9BB271
:104E9000002B02D1786800F0F1F800BF0837BD465A
:104EA00080BD80B582B000AF78607B681B6B1A88CC
:104EB0007B681B68DA607B681B6B9A1C7B681A63D3
:104EC0007B68DB8E9BB2013B9AB27B68DA867B689B
:104ED000DB8E9BB2002B02D1786800F0CFF800BFC8
:104EE0000837BD4680BD000080B588B000AFF860CF
:104EF000B9603B601346FB71FCF712FC0246BB6ACB
:104F00009B1A3A681344FB61FCF70AFCB861394B01
:104F10001B685B011B0DFA6902FB03F37B6154E024
:104F20003B68B3F1FF3F50D0FCF7FAFB0246BB6988
:104F3000D31AFA699A4202D9FB69002B3DD1FB686A
:104F40001B685A68FB681B6822F0E0025A60FB6825
:104F50005B68B3F5827F11D1FB689B68B3F5004FA6
:104F600004D0FB689B68B3F5806F07D1FB681B68B2
:104F70001A68FB681B6822F040021A60FB689B6A93
:104F8000B3F5005F0FD1FB681B681A68FB681B68EC
:104F900022F400521A60FB681B681A68FB681B68E1
:104FA00042F400521A60FB68012283F85120FB682A
:104FB000002283F85020032317E07B69002B01D1E6
:104FC0000023FB617B69013B7B61FB681B689A687E
:104FD000BB681340BA689A420CBF01230023DBB2BE
:104FE0001A46FB799A429BD1002318462037BD46CA
:104FF00080BD00BF0C00002080B588B002AFF86013
:10500000B9607A601B4B1B681B4AA2FB03235B0D34
:105010004FF47A7202FB03F37B61FB685B68B3F5C4
:10502000827F12D17B680093BB6800228021F868E0
:10503000FFF75AFF0346002B16D0FB685B6D43F069
:105040002002FB685A6503230FE07B69002B0AD01E
:105050007B69013B7B61FB681B689B6803F08003F5
:10506000802BF2D000E000BF002318461837BD4661
:1050700080BD00BF0C000020819F5E1680B586B009
:1050800000AF78602C4B1B682C4AA2FB03235B0A01
:10509000642202FB03F33B61FCF742FB78613B694E
:1050A000002B06D17B685B6D43F020027B685A655C
:1050B00009E03B69013B3B617B681B689B6803F02F
:1050C0000203002BEBD07B681B685A687B681B6867
:1050D00022F0A0025A607A6964217868FFF78CFF99
:1050E0000346002B05D07B685B6D43F020027B6894
:1050F0005A657B689B68002B0AD10023FB607B68A4
:105100001B68DB68FB607B681B689B68FB60FB6857
:105110007B68012283F851207B685B6D002B03D0F4
:105120007868FFF77DFE02E07868FFF76FFE00BF4A
:105130001837BD4680BD00BF0C000020F119760570
:1051400080B582B000AF78607B68002B01D101236D
:1051500041E07B6893F83D30DBB2002B06D17B68E1
:10516000002283F83C207868FCF724FA7B6802224E
:1051700083F83D207B681A687B6804331946104623
:1051800000F02EFA7B68012283F846207B6801221A
:1051900083F83E207B68012283F83F207B68012250
:1051A00083F840207B68012283F841207B6801223C
:1051B00083F842207B68012283F843207B68012228
:1051C00083F844207B68012283F845207B68012214
:1051D00083F83D20002318460837BD4680BD80B5C2
:1051E00082B000AF78607B681B681B6903F0020324
:1051F000022B22D17B681B68DB6803F00203022BC1
:105200001BD17B681B686FF002021A617B68012268
:105210001A777B681B689B6903F00303002B03D09C
:10522000786800F0BFF905E0786800F0B1F97868B7
:1052300000F0C2F97B6800221A777B681B681B6943
:1052400003F00403042B22D17B681B68DB6803F0A6
:105250000403042B1BD17B681B686FF004021A61E6
:105260007B6802221A777B681B689B6903F4407392
:10527000002B03D0786800F095F905E0786800F01D
:1052800087F9786800F098F97B6800221A777B68C4
:105290001B681B6903F00803082B22D17B681B687D
:1052A000DB6803F00803082B1BD17B681B686FF0D9
:1052B00008021A617B6804221A777B681B68DB6925
:1052C00003F00303002B03D0786800F06BF905E0CE
:1052D000786800F05DF9786800F06EF97B6800226C
:1052E0001A777B681B681B6903F01003102B22D10F
:1052F0007B681B68DB6803F01003102B1BD17B68F5
:105300001B686FF010021A617B6808221A777B68AD
:105310001B68DB6903F44073002B03D0786800F04E
:1053200041F905E0786800F033F9786800F044F955
:105330007B6800221A777B681B681B6903F00103F6
:10534000012B0ED17B681B68DB6803F00103012B86
:1053500007D17B681B686FF001021A61786800F062
:105360000DF97B681B681B6903F08003802B0ED14D
:105370007B681B68DB6803F08003802B07D17B68A8
:105380001B686FF080021A61786800F0BBFA7B68D6
:105390001B681B6903F04003402B0ED17B681B6820
:1053A000DB6803F04003402B07D17B681B686FF07C
:1053B00040021A61786800F009F97B681B681B6974
:1053C00003F02003202B0ED17B681B68DB6803F001
:1053D0002003202B07D17B681B686FF020021A6125
:1053E000786800F085FA00BF0837BD4680BD80B5FB
:1053F00084B000AF786039600023FB737B6893F85A
:105400003C30012B01D10223B4E07B68012283F8F8
:105410003C207B68022283F83D207B681B689B68E8
:10542000BB60BB6823F07703BB60BB6823F47F439A
:10543000BB607B681B68BA689A603B681B68B3F501
:10544000005F3ED0B3F5005F00F28780B3F5805F68
:1054500000F08680B3F5805F7FD8702B1AD0702B58
:105460007BD8602B50D0602B77D8502B3CD0502B62
:1054700073D8402B58D0402B6FD8302B64D0302BB2
:105480006BD8202B60D0202B67D8002B5CD0102B42
:105490005AD062E07B6818683B6899683B685A6834
:1054A0003B68DB6800F096F97B681B689B68BB6013
:1054B000BB6843F07703BB607B681B68BA689A607F
:1054C0004FE07B6818683B6899683B685A683B689E
:1054D000DB6800F07FF97B681B689A687B681B6853
:1054E00042F480429A603CE07B6818683B685968E7
:1054F0003B68DB681A4600F0F3F87B681B685021B4
:10550000184600F04CF92CE07B6818683B68596835
:105510003B68DB681A4600F012F97B681B68602163
:10552000184600F03CF91CE07B6818683B68596835
:105530003B68DB681A4600F0D3F87B681B684021A3
:10554000184600F02CF90CE07B681A683B681B6871
:105550001946104600F023F903E00123FB7300E035
:1055600000BF7B68012283F83D207B68002283F81E
:105570003C20FB7B18461037BD4680BD80B483B00D
:1055800000AF786000BF0C37BD465DF8047B704704
:1055900080B483B000AF786000BF0C37BD465DF8C3
:1055A000047B704780B483B000AF786000BF0C37D5
:1055B000BD465DF8047B704780B483B000AF78606F
:1055C00000BF0C37BD465DF8047B704780B483B0E4
:1055D00000AF786000BF0C37BD465DF8047B7047B4
:1055E00080B485B000AF786039607B681B68FB6071
:1055F0007B68344A93420FD07B68B3F1804F0BD065
:105600007B68314A934207D07B68304A934203D08B
:105610007B682F4A934208D1FB6823F07003FB603C
:105620003B685B68FA681343FB607B68254A9342DA
:105630001BD07B68B3F1804F17D07B68224A93421E
:1056400013D07B68214A93420FD07B68204A934253
:105650000BD07B681F4A934207D07B681E4A934257
:1056600003D07B681D4A934208D1FB6823F4407342
:10567000FB603B68DB68FA681343FB60FB6823F060
:1056800080023B685B691343FB607B68FA681A60C1
:105690003B689A687B68DA623B681A687B689A6242
:1056A0007B68084A934203D13B681A697B681A6396
:1056B0007B6801225A6100BF1437BD465DF8047B48
:1056C000704700BF00000140000400400008004097
:1056D000000C0040004001400044014000480140EF
:1056E00080B487B000AFF860B9607A60FB681B6A6D
:1056F0007B61FB681B6A23F00102FB681A62FB688E
:105700009B693B613B6923F0F0033B617B681B01B4
:105710003A6913433B617B6923F00A037B617A6931
:10572000BB6813437B61FB683A699A61FB687A69DD
:105730001A6200BF1C37BD465DF8047B704780B419
:1057400087B000AFF860B9607A60FB681B6A23F02D
:105750001002FB681A62FB689B697B61FB681B6A2D
:105760003B617B6923F470437B617B681B037A692F
:1057700013437B613B6923F0A0033B61BB681B01C2
:105780003A6913433B61FB687A699A61FB683A693D
:105790001A6200BF1C37BD465DF8047B704780B4B9
:1057A00085B000AF786039607B689B68FB60FB6800
:1057B00023F07003FB603A68FB68134343F0070370
:1057C000FB607B68FA689A6000BF1437BD465DF8DD
:1057D000047B704780B487B000AFF860B9607A602E
:1057E0003B60FB689B687B617B6923F47F437B6143
:1057F0003B681A027B681A43BB6813437A691343F8
:105800007B61FB687A699A6000BF1C37BD465DF812
:10581000047B704780B485B000AF786039607B68E6
:1058200093F83C30012B01D1022350E07B68012228
:1058300083F83C207B68022283F83D207B681B684C
:105840005B68FB607B681B689B68BB60FB6823F040
:105850007003FB603B681B68FA681343FB607B685E
:105860001B68FA685A607B681B681C4A934218D010
:105870007B681B68B3F1804F13D07B681B68184AA4
:1058800093420ED07B681B68164A934209D07B680E
:105890001B68154A934204D07B681B68134A9342E5
:1058A0000CD1BB6823F08003BB603B685B68BA68BF
:1058B0001343BB607B681B68BA689A607B680122EF
:1058C00083F83D207B68002283F83C2000231846A3
:1058D0001437BD465DF8047B704700BF00000140EF
:1058E0000004004000080040000C0040004001405F
:1058F00080B483B000AF786000BF0C37BD465DF860
:10590000047B704780B483B000AF786000BF0C3771
:10591000BD465DF8047B7047014B1868704700BFB7
:105920001800002070B50D4D0D4C641BA41000260E
:10593000A64209D10B4D0C4C00F08EFC641BA41048
:105940000026A64205D170BD55F8043B98470136A4
:10595000EEE755F8043B98470136F2E7E8660008A1
:10596000E8660008E8660008EC66000802440346A2
:10597000934200D1704703F8011BF9E70EB400B55C
:105980009CB01DAB029006906FF000410948079152
:105990000491094953F8042B05910068019302A969
:1059A00000F068F8029B00221A701CB05DF804EB4E
:1059B00003B07047180000200802FFFF2DE9F047F0
:1059C0008E689E4282460C4690461F4638D88A8989
:1059D00012F4906F32D025680969A5EB0109656959
:1059E00005EB450505EBD57501334B446D109D4224
:1059F00038BF1D46530531D5294600F063FB0646E6
:105A000050B90C23CAF80030A38943F04003A381A6
:105A10004FF0FF30BDE8F08721694A4600F0BEFA3A
:105A2000A38923F4906343F08003A3812661656119
:105A30004E44A5EB09052660A5603E46BE4200D94E
:105A40003E4620683246414600F0B6FAA3689B1BEA
:105A5000A3602368334423600020DBE72A4600F07C
:105A6000A5FB06460028E1D12169504600F0BEFAA8
:105A7000C7E700002DE9F04F98468B891B069DB0C3
:105A800007460D4614460ED50B6963B9402100F058
:105A900019FB2860286120B90C233B604FF0FF30D0
:105AA000D1E040236B610023099320238DF8293036
:105AB000CDF80C803023DFF8A8818DF82A304FF024
:105AC000010923469A4613F8012B0AB1252AF9D178
:105AD000BAEB040B0BD05B46224629463846FFF74B
